:020000040800F2
:100000001021002079020008410E0008950900081F
:100010003D0E0008890900081916000800000000BC
:10002000000000000000000000000000B10E000809
:100030009309000800000000430E00089102000828
:10004000930200089302000893020008930200083C
:10005000930200089302000893020008930200082C
:100060009302000893020008930200088B0900081D
:100070008D0900088F090008910900089302000803
:100080009302000800000000930200089302000899
:1000900093020008930200089302000893020008EC
:1000A00093020008930200089302000893020008DC
:1000B00093020008930200089302000893020008CC
:1000C00093020008930200089302000893020008BC
:1000D00093020008930200089302000893020008AC
:1000E000930200089302000893020008930200089C
:1000F0009302000893020008930200080000000029
:1001000000000000930200080000000093020008B5
:10011000930200080000000093020008990F0008F5
:10012000930200089302000893020008930200085B
:100130009302000800000000000000009302000885
:100140009302000893020008000000000000000075
:10015000000000000000000000000000000000009F
:1001600000000000000000000000000093020008F2
:1001700093020008000000000000000000000000E2
:1001800000000000930200080000000000000000D2
:10019000000000000000000000000000000000005F
:1001A0000000000000000000930200089302000815
:1001B0009302000893020008930200080000000068
:1001C0000000000093020008000000000000000092
:1001D000930200089302000800F002F800F03CF8D7
:1001E0000AA090E8000C82448344AAF10107DA4592
:1001F00001D100F031F8AFF2090EBAE80F0013F0A8
:10020000010F18BFFB1A43F0010318474C1A0000F6
:100210006C1A0000103A24BF78C878C1FAD8520787
:1002200024BF30C830C144BF04680C607047000070
:100230000023002400250026103A28BF78C1FBD8EF
:10024000520728BF30C148BF0B6070471FB501F08F
:1002500062FC1FBD10B510BD00F047F91146FFF755
:10026000F5FF01F0DBF900F065F903B4FFF7F2FFE9
:1002700003BC00F06DF900000948804709480047B9
:10028000FEE7FEE7FEE7FEE7FEE7FEE7FEE7FEE746
:10029000FEE7FEE704480549054A064B70470000A3
:1002A000870F0008D9010008101B00201021002032
:1002B000101D0020101D002053EA020C00F0698080
:1002C0002DE9F04B4FF00006002B1FBFB3FA83F56A
:1002D00003FA05F424FA05F65E4012BF1643B2FA9B
:1002E00082F502FA05F4C5F120051EBF22FA05FCCD
:1002F00044EA0C04203556EA044C4FEA144418BF73
:10030000641C4FF000084FF00009904271EB030CA1
:1003100039D3002919BFB1FA81F701FA07F6B0FA0B
:1003200080F700FA07F6C7F120071EBF20FA07FC86
:1003300046EA0C062037B6FBF4FCA7EB0507103F96
:1003400007F01F0BCBF120062CFA06F60CFA0BFB7C
:1003500044BFB3460026202FA4BF5E464FF0000BDB
:100360005BEA060C08BF4FF0010B19EB0B0948EBD9
:100370000608ABFB027C06FB02CC0BFB03CCC01BCC
:1003800071EB0C01C1E70B46024641464846BDE809
:10039000F08B13B5084318BF4FF0FF300146AFF3A1
:1003A0000080BDE81C407047032A40F2308010F006
:1003B000030C00F0158011F8013BBCF1020F624400
:1003C00098BF11F801CB00F8013B38BF11F8013B91
:1003D000A2F1040298BF00F801CB38BF00F8013B3E
:1003E00011F0030300F04F80083AC0F0088051F884
:1003F000043B083A51F804CBA0E80810F5E7121DB9
:100400005CBF51F8043B40F8043BAFF30080D207D7
:1004100024BF11F8013B11F801CB48BF11F8012BA3
:1004200024BF00F8013B00F801CB48BF00F8012BC6
:1004300070474FF0000200B51346944696462039A7
:1004400022BFA0E80C50A0E80C50B1F12001BFF48D
:10045000F7AF090728BFA0E80C5048BF0CC05DF8F3
:1004600004EB890028BF40F8042B08BF704748BF41
:1004700020F8022B11F0804F18BF00F8012B7047B5
:1004800070477047704710B5203AC0F00B80B1E854
:100490001850A0E81850B1E81850A0E81850203AB9
:1004A000BFF4F5AF5FEA027C24BFB1E81850A0E8C2
:1004B000185044BF18C918C0BDE810405FEA827CDC
:1004C00024BF51F8043B40F8043B08BF7047D207F3
:1004D00028BF31F8023B48BF11F8012B28BF20F894
:1004E000023B48BF00F8012B7047754600F02CF81E
:1004F000AE4605006946534620F00700854618B011
:1005000020B5FFF7C7FEBDE820404FF000064FF0D2
:1005100000074FF000084FF0000BAC46ACE8C009F4
:10052000ACE8C009ACE8C009ACE8C00921F007019B
:100530008D46704710B50446AFF300802046BDE8F5
:100540001040FFF792BE00000048704708000020EE
:1005500001491820ABBEFEE726000200704780B5B7
:1005600040F2700EC2F2000E9EF8173084464FF033
:10057000010003B180BD8EF818008EF8170000202E
:100580008EF808C08EF80910CEF8102080BD40F219
:10059000700CC2F2000C9CF81730002B4FF00103D6
:1005A0000BD18CF8183002238CF8173000238CF80C
:1005B00008008CF80910CCF810201846704740F25B
:1005C0007000C2F200000021017670471820C4F6C6
:1005D0000000202101600121C0F800144FF4805177
:1005E000016143F2000041F27073C4F20100302255
:1005F000C2F2000300F10C01C4F202020333916065
:10060000D36053684FF0050C6CF30F035360D16156
:1006100091696CF30F019161416841F00201416001
:10062000416841F001014160016841F04001016011
:10063000106840F0010010607047000040F2700246
:10064000C2F20002D17D072900F2A480DFE811F098
:100650001D010800310058006E00A400B9009D0083
:10066000107A0C2300F07F0141F6484C83EA111305
:10067000C0F6000C1CF8033000F00F0058401CF8C6
:1006800000003C23A3EB800000F47F7040EA81105F
:1006900040F4803040F0020010600220107500200D
:1006A000506050810320D0754FF48030D06101211B
:1006B000EBE0107A0C2300F07F0141F6484C83EA0E
:1006C0001113C0F6000C1CF8033000F00F00584066
:1006D0001CF800003C23A3EB800000F47F7040EA8C
:1006E000811000F101101060012100200323117519
:1006F00050815060D375A2F815004FF4803013E09C
:10070000D17A0131D172C9B2C1F1120C536800FA29
:100710000CF01843112950605DD81068D169014070
:10072000D06918BF01214008D061AEE0D17A53688A
:10073000C1F10D0C00FA0CF018430D2950605AD38A
:10074000506841F64843C0F30321C0F60003595CEA
:10075000C0F303104840185C5168C0F10F0001F06D
:100760000F01884240F08E8050681169937A000929
:10077000C854507A917A0131CBB28342917280F0A1
:10078000778000205060D07291E7107B10B1013863
:10079000107379E000211CE0917D032972D8DFE815
:1007A00001F0022D374D517D01230229937565D04B
:1007B000012965D0002965D101210028517566D134
:1007C00060E0507B002101305073507B0E285CD1DB
:1007D0005173D17559E05168107D430803F580339A
:1007E00099424FD100210523D172022808BF04236A
:1007F000D37551605BE7481CD07245E002219175CA
:10080000D17200215160E8B31068C0F3C0213CE010
:10081000D17A5368C1F10D0C00FA0CF01843506006
:10082000481CD0721168C0B2C0F10D03D9400D2828
:1008300001F0010104BF0320907526E00021D37A66
:100840009175C3F10D01536888401843506050689A
:100850001168B0EB510F15D1507A917A0131CBB2BA
:1008600083429172FFF423AF0220507510760BE0A3
:10087000032010760720D0750E2089E710B9F9E71C
:10088000012804D10620D075002108467047106960
:10089000917A41F6484C405CC0F6000C01091CF806
:1008A000011000F00F0359401CF801101E23A3EBA8
:1008B000410101F4FF7141EA401010601068C0F37B
:1008C0000031E2E770B54FF090452868012161F3EF
:1008D0008B2030262860C4F20206306843F2000400
:1008E00020F0010030607069C4F2010420F00100C2
:1008F0007061204600F0A7F94FF45B70206041F270
:1009000003706060B069052161F30F00B061706829
:1009100061F30F0070607069022140F001007061A6
:10092000286861F38B202860306840F00100306057
:1009300070BDB0B53025C4F20205286843F200044A
:1009400020F0010028606869C4F2010420F0010071
:100950006861204600F077F940F26F30206041F284
:1009600003706060A869052161F30F00A8616868E1
:1009700061F30F006860686940F0010068612868F1
:1009800040F001002860B0BDFEE770477047704737
:1009900070477047FEE7000041F20041C4F20001D9
:1009A000C86840F00100C8600A68082042F00102EF
:1009B0000A6041F61411C4F20200C2F20001C160E3
:1009C00048F22401C4F2000141F614228160C2F20F
:1009D000000204310262C16141684FF4807262F327
:1009E0000F01416048F20801C4F2000151E8002FF4
:1009F00042F0400241E80023002BF7D151E8002FDC
:100A000042F0800241E80023002BF7D1016841F059
:100A100001010160704740F27000C2F20000007EE8
:100A2000704700002DE9F04F0C6894FAA4F2B2FA76
:100A300082F234FA02F361D04FF001084FF0030B59
:100A400008FA02F314EA030C54D0D1F80490A9F187
:100A50000103022B1CD29CFAACF6B6FA86F77E0094
:100A6000D0F808A00BFA06F3D1E902BE2AEA030A7D
:100A70000BFA06F545EA0A05856045684FF0030B59
:100A8000A5430EFB04F4DB432543456008E000BFAB
:100A90009CFAACF3B3FA83F77E000BFA06F3DB4360
:100AA0000D69C468B5401C402543B9F1020FC5600B
:100AB00019D14FEA1C2494FAA4F4D1F814E0BCF53F
:100AC000807F28BFB4FA84F74FF0240438BF202475
:100AD00050F804C0BF000F25BD402CEA05050EFAF2
:100AE00007F72F430751D1E900470568B7402B406E
:100AF0003B430360013234FA02F3A1D10020BDE888
:100B0000F08F44F6D351C1F26201A0FB01014FF016
:100B1000FF3000EB91104EF21001CEF20001486060
:100B200000208860052008607047000070B504460A
:100B30000068C00733D10D4620684EF6F311CEF69B
:100B4000FF7105F1080608404ECE084318433043B4
:100B50002060606820F4405010436060A869A1687C
:100B600021F440710843A0604FF4406000F02EF87B
:100B7000B8B16A68AAB129880EA333F8111000230E
:100B8000B0FBF1F00026010E000210EB520041F123
:100B90000001FFF791FB6FF31F50E06002E00126B8
:100BA00006E001262888E16A21F00F010843E0628F
:100BB000304670BD010002000400060008000A0073
:100BC0000C001000200040008000000110B541F230
:100BD0000004C4F20204D4F8881008404FEAB020A0
:100BE000032807D002280CD0012813D1BDE81040FB
:100BF00000F028B9D4F890004FF4004101EA8030A9
:100C000010BD206842F200414005C0F2F40101EA43
:100C1000E07010BD00F016F9A16841F63032C1F362
:100C20000311C0F60002515CA26841F64033C2F3E2
:100C30000222C0F600039A5C01F01F01C84002F0D6
:100C40001F01C84010BD43F60001C4F200018842F4
:100C50001AD043F60041C4F20001884220D043F28A
:100C60000001C4F2010188421CBF0120704741F21B
:100C70003800C4F20200816841F4805181608168CB
:100C800021F48051816017E041F23800C4F2020083
:100C9000016841F480410160016821F480410AE06B
:100CA00041F23800C4F20200016841F400410160E1
:100CB000016821F400410160002070472DE9F047F0
:100CC00002460068400632D410684FF6BF73D1E97F
:100CD000008E20EA030CD1E9024A4CEA0805D1E96A
:100CE000046745EA0E05D1E9063045EA0A052E43B8
:100CF0003343D1F820901843384340EA090010608C
:100D0000506840F60473984340EA1740002320439C
:100D1000B3EBD42F506003D1506840F48050506042
:100D2000B9F5005F04BF888C1061002000E001204D
:100D3000D16921F40061D161BDE8F08740F204017E
:100D4000C2F200010860704740F2FF7C0246006872
:100D5000C4F2000C624510DD40F60003C4F200034B
:100D60009A4213D043F20043C4F201039A420DD0D9
:100D700042F60043C4F2010306E0B2F1804F05D011
:100D800040F20043C4F200039A4203D14B6820F0C2
:100D90007000184343F2FF33C4F201039A4209DCA6
:100DA000624516DCB2F1804F28D040F20043C4F215
:100DB000000321E044F2FF33C4F201039A4211DC44
:100DC00043F20043C4F201039A4217D044F20003F5
:100DD00010E040F60003C4F200039A420ED042F63F
:100DE000004307E044F60003C4F201039A4205D031
:100DF00044F20043C4F201039A4203D1CB6820F4C9
:100E00004070184310608868D062A2F18040A0F55D
:100E100096300B884FEAB0200728936207D8012349
:100E200003FA00F010F0E50F1CBF08691063506969
:100E300040F001010020516170470000FEE7000012
:100E4000FEE7704741F20C01C4F2020151F8040CB4
:100E500000F00C0242F200400C2AC0F2F40007D06D
:100E6000082A18BF704741F20020C0F27A0070478C
:100E70000A68034602F00302032A04BF41F200237A
:100E8000C0F27A03022A0A6808BF0346C2F30620AA
:100E90000A680968C2F3031258430132B0FBF2F04A
:100EA000C1F34161022202EB4101B0FBF1F0704756
:100EB0007047000010B582B042F20000C4F2020098
:100EC0000168042262F30301016000BF016801F0C0
:100ED0000F010429FAD147F20001C4F200010A68A7
:100EE000012341F2000063F34A22C4F202000A60C7
:100EF000016841F48031016001688903FCD5C16853
:100F000048F20C02CFF6FF12114042F203421143A5
:100F1000C160C16841F08071C160016841F08071B9
:100F2000016000BF01688901FCD58168082241F099
:100F300003018160816862F307118160816801F0BB
:100F40000C010C29FAD155210191019911B1019996
:100F50000139F9E7816844F2004421F0F001816031
:100F60008168C0F6950421F4E0618160816821F414
:100F7000605181602046FFF7C4FD204602B0BDE805
:100F80001040FFF7DBBE4EF68850CEF2000001683D
:100F900041F470010160704780B541F21040C4F225
:100FA00000006FF0010140F26C0C0160C2F2000C15
:100FB000DCF8001041F648338A0FC0F600039A5C53
:100FC000C1F387505040185CC1F387325040185C21
:100FD000C1F387114840185CDCF8001080F0FF0076
:100FE00001F03F01B1EB900F19D140F20000C2F2C5
:100FF00000000021017040F26801C2F20001DCF83B
:1010000000000A6802F07F4242EA10200860086887
:101010000A6862F3170000F18070086005E040F292
:101020000000C2F200000121017041F27070C2F2B2
:101030000000416809BACCF800100068C0F30060F5
:10104000FFF7FCFA012802D1FFF73CFC01E0FFF7B3
:1010500070FCBDE8804000F001B800002DE9F04FC1
:1010600083B0FFF7D8FC032807D141F27A70C2F2AF
:10107000000000F0A1FAFFF7A2FA41F27977C2F27C
:1010800000073878062800F23781DFE810F0070003
:101090002000350155005C00DB0032010C20C4F259
:1010A0000200006881B241F67C00C2F200000068D4
:1010B000C1F58071814240F0248141F60510C2F2F1
:1010C00000000078002800F01981042015E141F6A5
:1010D0008009C2F2000948468521FFF7AAF941F6C6
:1010E0001010C2F20000007800285DD041F67C0BA1
:1010F00041F60C1AC2F2000BC2F2000ADBF8004003
:10110000DAF8000041F6141520440138C0B2C2F2EA
:101110000005285CDAF8001001390A0600F00981A0
:10112000CAB20021234600BFDEB2AE5D013A3144AF
:1011300003F10103F8D1FDE041F27870C2F2000042
:101140000121017030E041F60518C2F2000898F85C
:101150000000002800F0D28041F60619C2F2000912
:1011600099F8001040F29006C2F20006862211FBA8
:10117000026301FB02F51A7916F805B05C88802A33
:1011800000F3F280151F092D03F1050A00F27B819F
:10119000DFE815F00C000A000A000A000A000A0045
:1011A0000A008C019301AA010620A6E0FFF733FC98
:1011B000012800F0A3809AF800000DF107028DF8D5
:1011C000070018200121FFF7E2F9002840F097817D
:1011D00099F800004EF28F3101304143490D01EB87
:1011E000C101A0EB810198F800000022431EDDB28E
:1011F00088F8003041F60813C2F20003232D3A703C
:1012000089F800101A7000F2D0812331CAB2392354
:101210005A43D20A42EAC202A1EB820189F80010C5
:10122000C9B2862201FB02F311FB02610D220A7191
:1012300040224A800122F2540522127888F80000E8
:101240004A715BE041F26831C2F20001B1F800047A
:10125000002851D040F26800C2F2000000680290FD
:10126000009091F80224000E824247D081F80204D7
:1012700091F80404009A41F8202091F80404013008
:1012800081F8040491F8040491F80324801AC0B290
:101290003C2833D391F8030491F80424904241F29E
:1012A0007A70C2F2000015D00022042391F8037472
:1012B00050FA82F651F8277053FA82F2776091F86B
:1012C0000374013781F8037491F8037491F804648E
:1012D000B742EBD1B1F80024013AA1F80024B1F8EB
:1012E0000024120A4270B1F80014817000F064F911
:1012F00004E000BF00BF00BF0020387003B0BDE8AD
:10130000F08F41F61412C2F20002125C41F6101383
:10131000C2F200031A701A78081A511D41F60C1215
:10132000C2F2000211601168C0B28842E6D3012007
:10133000E3E700214942C9B288420DD1DAF8000042
:101340002044B0F5807F40D8DAF8002041F68000D4
:101350002919C2F2000045E041F27870C2F20000A3
:1013600001210170032086E0812A00F0DE80822ABC
:101370007FF41AAFFFF74FFB0128BFD041F27A721A
:10138000C2F200028220D07002F804BB200A02F8E8
:10139000030C2046594602F8024CFFF7E0F80028FB
:1013A0007FF402AF99F8001000203870481C4EF20C
:1013B0008F314143490D01EBC101A0EB810098F849
:1013C000001089F80000481E8BE0C4F580762919CA
:1013D00048463246FEF7E8FFDAF8001009EB06004F
:1013E0008A1B2946FEF7E0FF41F60518C2F2000805
:1013F00098F80060232E37D841F60713B9F801009A
:10140000C2F2000393F800B040F2900C99F8031078
:1014100000BAC2F2000C862599F80020000C1BFBD4
:1014200005C30BFB05F519715880581D09F104011E
:101430000CF80520FEF7B8FF0BF101004EF28F31DA
:101440004143490D01EBC101A0EB810041F60711B9
:10145000C2F2000141F67C0B0870701CC2F2000B56
:1014600088F80000042006E041F27870C2F2000023
:101470000221017006203870DAF800002044C0B262
:10148000CBF800003AE7002A7FF48EAEFFF7C3FAEC
:1014900001283FF433AFBBF1400F2AD104F01F0005
:1014A00006304FF0410B8AF8410022E040F218422A
:1014B000C4F600020123136105E040F21842C4F6AD
:1014C00000020123136000223A7001314EF28F3284
:1014D0004A43520D02EBC202A1EB8201013889F8A6
:1014E000001088F8000009E7FFF795FA01283FF49B
:1014F00005AF204659465246FFF749F8D8B341F6A2
:101500000810C2F2000001780131CAB2032A01704A
:10151000FFF4F4AE41F27871C2F2000103220A70C6
:101520000621397000210170E8E641F27A72C2F2B8
:1015300000028123D370F023137041F26833621CE0
:10154000C2F20003A3F80024002283F8042483F8E5
:10155000032483F8022401314EF28F324A43520DA4
:1015600002EBC202A1EB8201013889F8001088F871
:1015700000000520C1E699F800104EF28F320131CB
:101580004A43520D02EBC202A1EB820198F80020FF
:1015900089F80010511E88F8001041F6081100204B
:1015A000C2F2000138700870A8E641F27870C2F209
:1015B00000000221C5E5000070B51C26C4F2020639
:1015C000014600783268FC2822F0010228BFFC2086
:1015D000326072684FF6FF739A43024441F6142555
:1015E0000532041DC2F20005726028462246FEF74D
:1015F000DBFEE87829461030E8700020224600BF64
:1016000011F8013B013A1844FAD14042285530689C
:1016100040F00100306070BDFEE7000090B041F284
:101620004805C4F20205A8694EF60C5B40F00100C3
:10163000A861A869CEF2000B00F0010006900698A0
:1016400028694FF6FF0140F0805028612869042284
:1016500000F0805006900698DBF800004FF0000A7A
:10166000084040F20031C0F2FA510843CBF80000C4
:10167000DBF8000040F20046C0F3022080F00701D2
:10168000042928BF11464FF0FF32033802FA01F156
:1016900038BF5046C94301FA00F000018BF817002B
:1016A00047F20800C4F200000168082748F200046D
:1016B00041F48041C4F60006C4F20207C4F20004FB
:1016C0000160FFF7F7FBCDF82CA068684FF0010828
:1016D00040F02000686068684FF4805900F02000F6
:1016E00000900098686840F001006860686800F049
:1016F000010000900098686840F002006860686827
:1017000000F00200009000984FF62840CFF6FF70DE
:10171000C6F8288046F80090304606AE3146CDE93E
:101720000688CDE908AACDF828A0FFF77BF94FF08D
:1017300090403146CDE90698CDE908AACDF828A019
:10174000FFF770F928684EF20B4140F00400286062
:101750002868CEF2000100F0040006900698286880
:101760004EF2001240F0010028602868CEF200021C
:1017700000F0010006900698DBF8000081F800A058
:101780004FF400601060DBF8000081F801A0C2F89F
:101790000090DBF8000081F802A04FF400501060C8
:1017A000DBF8000081F803A04FF480401060286847
:1017B0006E4640F00800286028684FF0020800F0EC
:1017C000080006900698286C4FF00C0920F4406041
:1017D00028646869314640F001006861686900F07A
:1017E000010006900698686840F00100686068682B
:1017F00000F0010006900698042000904FF0904001
:10180000CDE9018ACDE903AACDF81490FFF70AF9D2
:1018100008208DE801054FF090403146CDE903AA3C
:10182000CDF81490FFF7FEF8D7F8F807222161F3FE
:101830000700C7F8F80738684BF6EF78CFF6FF785F
:1018400000EA08003860386840F6040220F440508E
:1018500038603868C4F2020240F02000386038680E
:10186000232120F040003860386840F08000386064
:10187000386820F440703860386820F44060386080
:10188000106861F307001060786906A900EA080093
:1018900010307861786920F440507861786920F0E0
:1018A00020007861786920F040007861786940F024
:1018B00080007861786920F440707861786920F45C
:1018C0004060786141F60030C0F2B700CDE9070A08
:1018D0002046CDF818A0CDE909AACDE90B9AFFF76B
:1018E00025F948F20800C4F2000000BF50E8001FCC
:1018F00021F0604140E80012002AF7D150E8001FB3
:1019000021F0606140E80012002AF7D1206820F041
:1019100000502060206840F001002060E0698002F3
:10192000FCD5E0694002F9D5A869EA4640F4805048
:10193000A861A8694FF0020900F48050069006984B
:101940006868002640F00100686068684FF0050B89
:1019500000F00100069006986868514640F00200C9
:101960006860686800F002000690069820200090E9
:101970004FF09040CDF80490CDE902660496CDF882
:1019800014B0FFF74FF88020CDE900094FF09040E8
:101990005146CDE90266CDE9046BFFF743F810200C
:1019A000CDE9000940F20040C4F600005146CDE9FF
:1019B0000266CDE9046BFFF735F840F60402C4F285
:1019C000020250680A2161F307005060B86A0B21D7
:1019D00000EA0800B862B86A20F44050B862B86AF9
:1019E00020F02000B862B86A20F04000B862B86AFF
:1019F00040F08000B862B86A20F44070B862B86AFB
:101A000020F44060B862906861F307009060F86B62
:101A100006A900EA08001030F863F86B69F30D308E
:101A2000F863F86B20F02000F863F86B20F04000BA
:101A3000F863F86B40F08000F863F86B20F44070B6
:101A4000F863F86B20F44060F8634FF482700790FD
:101A50004FF4E060CDE9080901200A904FF40070CE
:101A60000B902820CDE90C0607200F9004F530409C
:101A700006960E96FFF722F943F20400C4F2010025
:101A8000016806AC21F010010160016821F0080135
:101A9000016020461421FEF7CCFC28694EF20011AB
:101AA00040F0200028612869CEF2000100F02000FB
:101AB000009000984EF60C50CEF2000000684EF2F6
:101AC0000B40CEF2000080F82C604FF4000041F291
:101AD0000045486041F2BF20C4F200050890284646
:101AE0002146ADF818600796FFF72EF928684FF6E3
:101AF0008F7120F0800028606868CFF6FF510840A1
:101B00006860A86820F08000A860FEF745FFFEF737
:101B10005DFD00BFFEE7F1EE100A4FF6FF71C0F267
:101B2000C03120EA010040F04070E1EE100A704739
:101B3000000000000000000001020304060708097D
:101B40000000000001020304000C1814303C28249B
:101B5000606C7874505C4844C0CCD8D4F0FCE8E4A5
:101B6000A0ACB8B4909C88848C809498BCB0A4A895
:101B7000ECE0F4F8DCD0C4C84C4054587C70646885
:101B80002C2034381C10040814180C0024283C3075
:101B900074786C6044485C50D4D8CCC0E4E8FCF065
:101BA000B4B8ACA084889C909894808CA8A4B0BC55
:101BB000F8F4E0ECC8C4D0DC5854404C6864707C45
:101BC0003834202C0804101C2824303C1814000C35
:101BD0004844505C7874606CE8E4F0FCD8D4C0CC25
:101BE0008884909CB8B4A0ACA4A8BCB094988C8015
:101BF000C4C8DCD0F4F8ECE064687C7054584C4005
:101C000004081C1034382C203C3024280C001418F4
:101C10005C5044486C607478FCF0E4E8CCC0D4D8E4
:101C20009C908488ACA0B4B8B0BCA8A4808C9894D4
:101C3000D0DCC8C4E0ECF8F4707C6864404C5854C4
:101C4000101C0804202C3834000306050C0F0A0968
:101C50000B080D0E07040102781C0008000000208C
:101C60000800000014020008801C00080800002082
:101C70000821000030020008010000000024F400E8
:04000005080001D915
:00000001FF
