:020000040800F2
:100000001021002079020008C90F00080909000822
:10001000C50F0008F90800080518000800000000D6
:10002000000000000000000000000000391000087F
:100030000509000800000000CB0F0008910200082D
:10004000930200089302000893020008930200083C
:10005000930200089302000893020008930200082C
:10006000930200089302000893020008FB080008AE
:10007000FD080008FF08000801090008030900083E
:100080009302000800000000930200089302000899
:1000900093020008930200089302000893020008EC
:1000A00093020008930200089302000893020008DC
:1000B00093020008930200089302000893020008CC
:1000C00093020008930200089302000893020008BC
:1000D00093020008930200089302000893020008AC
:1000E000930200089302000893020008930200089C
:1000F0009302000893020008930200080000000029
:1001000000000000930200080000000093020008B5
:10011000930200080000000093020008211100086B
:10012000930200089302000893020008930200085B
:100130009302000800000000000000009302000885
:100140009302000893020008000000000000000075
:10015000000000000000000000000000000000009F
:1001600000000000000000000000000093020008F2
:1001700093020008000000000000000000000000E2
:1001800000000000930200080000000000000000D2
:10019000000000000000000000000000000000005F
:1001A0000000000000000000930200089302000815
:1001B0009302000893020008930200080000000068
:1001C0000000000093020008000000000000000092
:1001D000930200089302000800F002F800F03CF8D7
:1001E0000AA090E8000C82448344AAF10107DA4592
:1001F00001D100F031F8AFF2090EBAE80F0013F0A8
:10020000010F18BFFB1A43F001031847241E00001A
:10021000441E0000103A24BF78C878C1FAD85207AB
:1002200024BF30C830C144BF04680C607047000070
:100230000023002400250026103A28BF78C1FBD8EF
:10024000520728BF30C148BF0B6070471FB501F08F
:100250004EFE1FBD10B510BD00F047F91146FFF767
:10026000F5FF01F0D1FA00F065F903B4FFF7F2FFF2
:1002700003BC00F06DF900000948804709480047B9
:10028000FEE7FEE7FEE7FEE7FEE7FEE7FEE7FEE746
:10029000FEE7FEE704480549054A064B70470000A3
:1002A0000F110008D9010008101B002010210020A8
:1002B000101D0020101D002053EA020C00F0698080
:1002C0002DE9F04B4FF00006002B1FBFB3FA83F56A
:1002D00003FA05F424FA05F65E4012BF1643B2FA9B
:1002E00082F502FA05F4C5F120051EBF22FA05FCCD
:1002F00044EA0C04203556EA044C4FEA144418BF73
:10030000641C4FF000084FF00009904271EB030CA1
:1003100039D3002919BFB1FA81F701FA07F6B0FA0B
:1003200080F700FA07F6C7F120071EBF20FA07FC86
:1003300046EA0C062037B6FBF4FCA7EB0507103F96
:1003400007F01F0BCBF120062CFA06F60CFA0BFB7C
:1003500044BFB3460026202FA4BF5E464FF0000BDB
:100360005BEA060C08BF4FF0010B19EB0B0948EBD9
:100370000608ABFB027C06FB02CC0BFB03CCC01BCC
:1003800071EB0C01C1E70B46024641464846BDE809
:10039000F08B13B5084318BF4FF0FF300146AFF3A1
:1003A0000080BDE81C407047032A40F2308010F006
:1003B000030C00F0158011F8013BBCF1020F624400
:1003C00098BF11F801CB00F8013B38BF11F8013B91
:1003D000A2F1040298BF00F801CB38BF00F8013B3E
:1003E00011F0030300F04F80083AC0F0088051F884
:1003F000043B083A51F804CBA0E80810F5E7121DB9
:100400005CBF51F8043B40F8043BAFF30080D207D7
:1004100024BF11F8013B11F801CB48BF11F8012BA3
:1004200024BF00F8013B00F801CB48BF00F8012BC6
:1004300070474FF0000200B51346944696462039A7
:1004400022BFA0E80C50A0E80C50B1F12001BFF48D
:10045000F7AF090728BFA0E80C5048BF0CC05DF8F3
:1004600004EB890028BF40F8042B08BF704748BF41
:1004700020F8022B11F0804F18BF00F8012B7047B5
:1004800070477047704710B5203AC0F00B80B1E854
:100490001850A0E81850B1E81850A0E81850203AB9
:1004A000BFF4F5AF5FEA027C24BFB1E81850A0E8C2
:1004B000185044BF18C918C0BDE810405FEA827CDC
:1004C00024BF51F8043B40F8043B08BF7047D207F3
:1004D00028BF31F8023B48BF11F8012B28BF20F894
:1004E000023B48BF00F8012B7047754600F02CF81E
:1004F000AE4605006946534620F00700854618B011
:1005000020B5FFF7C7FEBDE820404FF000064FF0D2
:1005100000074FF000084FF0000BAC46ACE8C009F4
:10052000ACE8C009ACE8C009ACE8C00921F007019B
:100530008D46704710B50446AFF300802046BDE8F5
:100540001040FFF792BE00000048704710000020E6
:1005500001491820ABBEFEE726000200704780B5B7
:1005600040F2740EC2F2000E9EF8173084464FF02F
:10057000010003B180BD8EF818008EF8170000202E
:100580008EF808C08EF80910CEF8102080BD40F219
:10059000740CC2F2000C9CF81730002B4FF00103D2
:1005A0000BD18CF8183002238CF8173000238CF80C
:1005B00008008CF80910CCF810201846704740F25B
:1005C0007400C2F2000000210176704740F2184129
:1005D00043F60000C4F600010122C4F201000A60E3
:1005E00001684FF0904221F001010160136840F270
:1005F000580C23F44063136013680221C4F2020C08
:1006000061F3934300F124011360CCF8081041F624
:100610007801C2F20001CCF80C10DCF804100422BE
:1006200062F30F0143F60802C4F20102CCF8041091
:1006300052E8001F41F0400142E80013002BF7D1BF
:100640000168102262F359510160016862F314419C
:100650000160016841F001010160DCF8000040F038
:100660000100CCF80000704740F27402C2F20002B0
:10067000D17D072900F2A380DFE811F021010800F5
:10068000310058006E00A300B9009C00107A0C23C2
:1006900000F07F0142F2200C83EA1113C0F6000C37
:1006A0001CF8033000F00F0058401CF800003C23F9
:1006B000A3EB800000F47F7040EA811040F48030AA
:1006C00040F0020010600220107500205060508140
:1006D0000320D0754FF48030D0610121EFE0107A13
:1006E0000C2300F07F0142F2200C83EA1113C0F6C4
:1006F000000C1CF8033000F00F0058401CF80000FC
:100700003C23A3EB800000F47F7040EA811000F1ED
:1007100001101060012100200323117550815060E9
:10072000D375A2F815004FF4803013E0D17A01316F
:10073000D172C9B2C1F1120C536800FA0CF018431F
:10074000112950605DD81068D1690140D06918BF87
:1007500001214008D061B2E0D17A5368C1F10D0C9B
:1007600000FA0CF018430D2950605AD3506842F239
:100770002003C0F30321C0F60003595CC0F303104B
:100780004840185C5168C0F10F0001F00F01884229
:100790004AD150681169937A0009C854507A917A05
:1007A0000131CBB28342917280F07C800020506096
:1007B000D07292E7107B10B1013810737EE00021F7
:1007C0001DE0917D032900F27780DFE801F002311E
:1007D0003B51517D01230229937569D0012969D0CC
:1007E000002969D10121002851756AD164E0507B4C
:1007F000002101305073507B0E2860D15173D175A8
:100800005DE05168107D430803F58033994253D170
:1008100000210523D172022808BF0423D37551603B
:100820005BE7481CD07249E000BF00BF00BF43E057
:1008300002219175D17200215160E8B31068C0F3B4
:10084000C0213CE0D17A5368C1F10D0C00FA0CF0E4
:1008500018435060481CD0721168C0B2C0F10D033B
:10086000D9400D2801F0010104BF0320907526E056
:100870000021D37A9175C3F10D0153688840184364
:10088000506050681168B0EB510F15D1507A917AD1
:100890000131CBB283429172FFF41FAF0220507539
:1008A00010760BE0032010760720D0750E2084E729
:1008B00010B9F9E7012804D10620D07500210846B7
:1008C00070471069917A42F2200C405CC0F6000C2F
:1008D00001091CF8011000F00F0359401CF8011029
:1008E0001E23A3EB410101F4FF7141EA40101060A7
:1008F0001068C0F30031E2E7FEE7704770477047C9
:100900007047704770470000FEE7000041F2004169
:10091000C4F20001C86840F00100C8600A680820FD
:1009200042F001020A6041F61411C4F20200C2F260
:100930000001C16048F22401C4F2000141F6142212
:100940008160C2F2000204310262C16141684FF469
:10095000807262F30F01416048F20801C4F20001A5
:1009600051E8002F42F0400241E80023002BF7D16C
:1009700051E8002F42F0800241E80023002BF7D11C
:10098000016841F001010160704740F27400C2F259
:100990000000007E704700002DE9F04F0C6894FACB
:1009A000A4F2B2FA82F234FA02F361D04FF00108F5
:1009B0004FF0030B08FA02F314EA030C54D0D1F8F9
:1009C0000490A9F10103022B1CD29CFAACF6B6FAF2
:1009D00086F77E00D0F808A00BFA06F3D1E902BE34
:1009E0002AEA030A0BFA06F545EA0A058560456816
:1009F0004FF0030BA5430EFB04F4DB432543456096
:100A000008E000BF9CFAACF3B3FA83F77E000BFA60
:100A100006F3DB430D69C468B5401C402543B9F1BA
:100A2000020FC56019D14FEA1C2494FAA4F4D1F83E
:100A300014E0BCF5807F28BFB4FA84F74FF024049B
:100A400038BF202450F804C0BF000F25BD402CEA59
:100A500005050EFA07F72F430751D1E9004705684E
:100A6000B7402B403B430360013234FA02F3A1D17B
:100A70000020BDE8F08F44F6D351C1F26201A0FB23
:100A800001014FF0FF3000EB91104EF21001CEF259
:100A90000001486000208860052008607047000061
:100AA00070B504460068C00733D10D4620684EF685
:100AB000F311CEF6FF7105F1080608404ECE08434B
:100AC000184330432060606820F440501043606059
:100AD000A869A16821F440710843A0604FF4406008
:100AE00000F02EF8B8B16A68AAB129880EA333F8CD
:100AF00011100023B0FBF1F00026010E000210EBF4
:100B0000520041F10001FFF7D7FB6FF31F50E06087
:100B100002E0012606E001262888E16A21F00F01A3
:100B20000843E062304670BD010002000400060088
:100B300008000A000C0010002000400080000001A6
:100B400010B541F20004C4F20204D4F88810084041
:100B50004FEAB020032807D002280CD0012813D177
:100B6000BDE8104000F032BAD4F890004FF40041D4
:100B700001EA803010BD206842F200414005C0F219
:100B8000F40101EAE07010BD00F020FAA16841F61E
:100B90000872C1F30311C0F60002515CA26841F66D
:100BA0001873C2F30222C0F600039A5C01F01F0121
:100BB000C84002F01F01C84010BD10B5C0281CBFBE
:100BC000002010BD41F20004C4F20204D4F88800F1
:100BD000C0F38110032807D002280CD0012813D1BC
:100BE000BDE8104000F0F2B9D4F890004FF4004195
:100BF00001EA803010BD206842F200414005C0F299
:100C0000F40101EAE07010BD00F0E0F9A16841F6DE
:100C10000872C1F30311C0F60002515CA26841F6EC
:100C20001873C2F30222C0F600039A5C01F01F01A0
:100C3000C84002F01F01C84010BD10B530282CD0AC
:100C40000C2833D003281CBF002010BD41F2000443
:100C5000C4F20204D4F888004FF4404161F39F00CD
:100C6000B0F1031F34D00221C0F20301884236D014
:100C70000121C0F20301884226D000F0A7F9A16843
:100C800041F60872C1F30311C0F60002515CA2687C
:100C900001F01F01C2F3C22239E041F20004C4F2A4
:100CA0000204D4F88800C0F3011007E041F2000408
:100CB000C4F20204D4F88800C0F38100032807D0EE
:100CC00002280CD0012813D1BDE8104000F07EB9F5
:100CD000D4F890004FF4004101EA803010BD206844
:100CE00042F200414005C0F2F40101EAE07010BD9B
:100CF00000F06CF9A16841F60872C1F30311C0F667
:100D00000002515CA26801F01F01C2F3022241F609
:100D10001873C0F600039A5CC84002F01F01C84077
:100D200010BD2DE9F04702460068400632D4106835
:100D30004FF6BF73D1E9008E20EA030CD1E9024AD5
:100D40004CEA0805D1E9046745EA0E05D1E9063009
:100D500045EA0A052E433343D1F82090184338431F
:100D600040EA09001060506840F60473984340EA76
:100D7000174000232043B3EBD42F506003D15068B9
:100D800040F480505060B9F5005F04BF888C10615A
:100D9000002000E00120D16921F40061D161BDE8AB
:100DA000F08740F20401C2F200010860704740F28F
:100DB000FF7C02460068C4F2000C624510DD40F67C
:100DC0000003C4F200039A4213D043F20043C4F27A
:100DD00001039A420DD042F60043C4F2010306E03B
:100DE000B2F1804F05D040F20043C4F200039A42B2
:100DF00003D14B6820F07000184343F2FF33C4F274
:100E000001039A4209DC624516DCB2F1804F28D01A
:100E100040F20043C4F2000321E044F2FF33C4F285
:100E200001039A4211DC43F20043C4F201039A42E7
:100E300017D044F2000310E040F60003C4F20003B0
:100E40009A420ED042F6004307E044F60003C4F293
:100E500001039A4205D044F20043C4F201039A42CE
:100E600003D1CB6820F44070184310608868D062CA
:100E7000A2F18040A0F596300B884FEAB0200728F9
:100E8000936207D8012303FA00F010F0E50F1CBFAE
:100E900008691063506940F00101002051617047FA
:100EA00070B504460068C0071CBF012070BD0E4627
:100EB000206846F6F311CEF6FF710840D6E9021C11
:100EC000D6E904320843F5691843104328432060EB
:100ED000606820F4405040EA0C006060B069A1688E
:100EE00021F440710843A06044F6FF30C4F20000D2
:100EF00084424FF001000DDC44F20041C4F20001D5
:100F00008C4215D044F60001C4F200018C423AD163
:100F100030200EE044F60041C4F200018C420BD0B8
:100F200043F60001C4F201018C422CD1032000E001
:100F30000C20FFF782FE02E0C020FFF73EFEC8B1A2
:100F40007168B9B132680B2A1CD812A353F8222059
:100F5000F369B0FBF2F0B3F5004F0DD1400000EBA8
:100F60005100B0FBF1F04FF6F0710140C0F34200C8
:100F7000084406E0012006E000EB5100B0FBF1F070
:100F800080B2E06000203188E26A22F00F02114353
:100F9000E16270BD010000000200000004000000DA
:100FA00006000000080000000A0000000C0000001D
:100FB0001000000020000000400000008000000041
:100FC00000010000FEE70000FEE7704741F20C015F
:100FD000C4F2020151F8040C00F00C0242F200408D
:100FE0000C2AC0F2F40007D0082A18BF704741F25B
:100FF0000020C0F27A0070470A68034602F003023C
:10100000032A04BF41F20023C0F27A03022A0A68CD
:1010100008BF0346C2F306200A680968C2F3031238
:1010200058430132B0FBF2F0C1F34161022202EBFE
:101030004101B0FBF1F070477047000010B582B07D
:1010400042F20000C4F202000168042262F30301CC
:10105000016000BF016801F00F010429FAD147F2D5
:101060000001C4F200010A68012341F2000063F3A9
:101070004A22C4F202000A60016841F48031016032
:1010800001688903FCD5C16848F20C02CFF6FF1253
:10109000114042F203421143C160C16841F08071C6
:1010A000C160016841F08071016000BF0168890181
:1010B000FCD58168082241F003018160816862F3F8
:1010C00007118160816801F00C010C29FAD15521CA
:1010D0000191019911B101990139F9E7816844F24F
:1010E000004421F0F00181608168C0F6950421F48C
:1010F000E0618160816821F4605181602046FFF7E2
:10110000BAFC204602B0BDE81040FFF74ABE4EF6DA
:101110008850CEF20000016841F470010160704710
:1011200070B541F210405824C4F200006FF0010184
:10113000C4F202040160606800041BD040F20900A0
:10114000C2F2000001782068042220F00100206033
:101150006068012962F30F006060226843F628008E
:10116000C4F2010042F00102226014BFB1218121CA
:10117000016065E041F67805C2F20005286841F695
:101180002072C0F30161C0F60002515CC0F3074356
:101190005940515CC0F307235940515CC3B25940D8
:1011A000515C820E81F0FF01B2EB910F18D140F239
:1011B0000001C2F2000100220A7040F27001C2F286
:1011C00000010A68C0F3D21002F07F4210440860A8
:1011D00008680A6862F3170000F18070086005E093
:1011E00040F20000C2F200000121017040F2080646
:1011F000C2F200063078FFF737FA2168042221F0A6
:10120000010121606168013862F30F0161602168AA
:1012100043F6280241F0010121604FF0B10108BFFF
:101220008121C4F20102B0FA80F0116040F209019C
:101230004009C2F2000108702878C0F30010307035
:10124000BDE87040AFF300802DE9F04F83B0FFF7A9
:101250009CFB032807D141F27670C2F2000000F037
:10126000A1FAFFF7ACF941F27577C2F200073878BE
:10127000062800F23781DFE810F007002000350172
:1012800055005C00DB0032010C20C4F20200006853
:1012900081B241F67C00C2F200000068C1F58071A5
:1012A000814240F0248141F60510C2F2000000782E
:1012B000002800F01981042015E141F68009C2F2EE
:1012C000000948468521FFF7B4F841F61010C2F234
:1012D0000000007800285DD041F67C0B41F60C1A26
:1012E000C2F2000BC2F2000ADBF80040DAF800009C
:1012F00041F6141520440138C0B2C2F20005285C42
:10130000DAF8001001390A0600F00981CAB200219A
:10131000234600BFDEB2AE5D013A314403F1010362
:10132000F8D1FDE041F27470C2F2000001210170B9
:1013300030E041F60518C2F2000898F800000028D5
:1013400000F0D28041F60619C2F2000999F80010A7
:1013500040F29406C2F20006862211FB026301FBF2
:1013600002F51A7916F805B05C88802A00F3F2803D
:10137000151F092D03F1050A00F27B81DFE815F046
:101380000C000A000A000A000A000A000A008C0188
:101390009301AA010620A6E0FFF7F7FA012800F062
:1013A000A3809AF800000DF107028DF807001820BD
:1013B0000121FFF7ECF8002840F0978199F8000030
:1013C0004EF28F3101304143490D01EBC101A0EBD9
:1013D000810198F800000022431EDDB288F8003039
:1013E00041F60813C2F20003232D3A7089F8001069
:1013F0001A7000F2D0812331CAB239235A43D20A7B
:1014000042EAC202A1EB820189F80010C9B2862229
:1014100001FB02F311FB02610D220A7140224A8096
:101420000122F2540522127888F800004A715BE02C
:1014300041F26C31C2F20001B1F80004002851D031
:1014400040F27000C2F2000000680290009091F833
:101450000224000E824247D081F8020491F804046D
:10146000009A41F8202091F80404013081F8040426
:1014700091F8040491F80324801AC0B23C2833D3B5
:1014800091F8030491F80424904241F27670C2F27C
:10149000000015D00022042391F8037450FA82F65C
:1014A00051F8277053FA82F2776091F8037401378C
:1014B00081F8037491F8037491F80464B742EBD196
:1014C000B1F80024013AA1F80024B1F80024120A6E
:1014D0004270B1F80014817000F064F904E000BFBC
:1014E00000BF00BF0020387003B0BDE8F08F41F6A8
:1014F0001412C2F20002125C41F61013C2F2000391
:101500001A701A78081A511D41F60C12C2F2000224
:1015100011601168C0B28842E6D30120E3E70021E0
:101520004942C9B288420DD1DAF800002044B0F532
:10153000807F40D8DAF8002041F680002919C2F2F5
:10154000000045E041F27470C2F200000121017018
:10155000032086E0812A00F0DE80822A7FF41AAF21
:10156000FFF713FA0128BFD041F27672C2F20002EF
:101570008220D07002F804BB200A02F8030C204637
:10158000594602F8024CFEF7EAFF00287FF402AF4A
:1015900099F8001000203870481C4EF28F314143FA
:1015A000490D01EBC101A0EB810098F8001089F80A
:1015B0000000481E8BE0C4F5807629194846324663
:1015C000FEF7F2FEDAF8001009EB06008A1B294646
:1015D000FEF7EAFE41F60518C2F2000898F800602E
:1015E000232E37D841F60713B9F80100C2F20003E1
:1015F00093F800B040F2940C99F8031000BAC2F2CC
:10160000000C862599F80020000C1BFB05C30BFB82
:1016100005F519715880581D09F104010CF80520D1
:10162000FEF7C2FE0BF101004EF28F314143490D2E
:1016300001EBC101A0EB810041F60711C2F20001EC
:1016400041F67C0B0870701CC2F2000B88F8000099
:10165000042006E041F27470C2F200000221017021
:1016600006203870DAF800002044C0B2CBF8000041
:101670003AE7002A7FF48EAEFFF787F901283FF49E
:1016800033AFBBF1400F2AD104F01F0006304FF0FA
:10169000410B8AF8410022E040F21842C4F60002F1
:1016A0000123136105E040F21842C4F60002012351
:1016B000136000223A7001314EF28F324A43520DCC
:1016C00002EBC202A1EB8201013889F8001088F810
:1016D000000009E7FFF759F901283FF405AF20465C
:1016E00059465246FEF753FFD8B341F60810C2F2EE
:1016F000000001780131CAB2032A0170FFF4F4AE90
:1017000041F27471C2F2000103220A70062139709D
:1017100000210170E8E641F27672C2F200028123F4
:10172000D370F023137041F26C33621CC2F20003D9
:10173000A3F80024002283F8042483F8032483F808
:10174000022401314EF28F324A43520D02EBC202A3
:10175000A1EB8201013889F8001088F8000005200B
:10176000C1E699F800104EF28F3201314A43520D12
:1017700002EBC202A1EB820198F8002089F8001068
:10178000511E88F8001041F608110020C2F2000135
:1017900038700870A8E641F27470C2F200000221AD
:1017A000C5E5000070B51C26C4F2020601460078AB
:1017B0003268FC2822F0010228BFFC2032607268E7
:1017C0004FF6FF739A43024441F614250532041D77
:1017D000C2F20005726028462246FEF7E5FDE87871
:1017E00029461030E8700020224600BF11F8013B66
:1017F000013A1844FAD140422855306840F00100BF
:10180000306070BDFEE7000090B041F24C0AC4F2B7
:10181000020ADAF814004EF60C5640F00100CAF83D
:101820001400DAF81400CEF2000600F00100009077
:101830000098DAF80C004FF6FF0140F08050CAF82B
:101840000C00DAF80C00042200F0805000900098A0
:1018500030680027084040F20031C0F2FA510843D6
:10186000306030684EF20B4BC0F3022080F007016D
:10187000042928BF11464FF0FF32033802FA01F164
:1018800038BF3846C94301FA00F00001F07547F24D
:101890000800C4F2000001684EF2001840F200494E
:1018A000082448F2000541F48041CEF2000BCEF24C
:1018B0000008C4F60009C4F20204C4F20005016085
:1018C000FFF7BCFB0597DAF80000694640F02000FE
:1018D000CAF80000DAF8000000F020000A900A9828
:1018E000DAF8000040F00100CAF80000DAF8000061
:1018F00000F001000A900A98DAF8000040F00200B7
:10190000CAF80000DAF8000000F002000A900A9815
:101910000120C9F82800CDE900004846CDE902774A
:101920000497FFF739F85AF8040C4FF0020940F019
:1019300004004AF8040C5AF8040C00F0040000906B
:1019400000985AF8040C40F001004AF8040C5AF8C8
:10195000040C00F001000090009830688BF80070D3
:101960004FF40060C8F8000030688BF801704FF445
:101970008050C8F8000030688BF802704FF40050B7
:10198000C8F8000030688BF803704FF48040C8F846
:10199000000030688BF804704FF40040C8F8000075
:1019A0005AF8040C0AAE40F008004AF8040C5AF841
:1019B000040C4FF00C0800F0080000900098DAF8D2
:1019C0003C00314620F44060CAF83C00DAF81000D0
:1019D00040F00100CAF81000DAF8100000F0010031
:1019E00000900098DAF8000040F00100CAF800000A
:1019F000DAF8000000F001000090009804200A903E
:101A00004FF09040CDE90B97CDE90D77CDF83C80B4
:101A1000FEF7C2FF0820CDE90A094FF09040314699
:101A2000CDE90C77CDE90E78FEF7B6FFD4F8F807CC
:101A3000222161F30700C4F8F80720684BF6EF7223
:101A4000CFF6FF7210402060206840F6040320F4B7
:101A5000405020602068C4F2020340F02000206063
:101A60002068232120F040002060206840F08000A2
:101A70002060206820F440702060206820F44060DE
:101A80002060186861F307001860606969461040BB
:101A900010306061606920F440506061606920F03E
:101AA00020006061606920F040006061606940F082
:101AB00080006061606920F440706061606920F4BA
:101AC0004060606141F60030C0F2B700CDE9010727
:101AD00028460097CDE90377CDE90587FEF7E0FFBB
:101AE00048F20800C4F2000050E8001F21F06041F5
:101AF00040E80012002AF7D150E8001F21F0606191
:101B000040E80012002AF7D1286820F00050286031
:101B1000286840F001002860E8698002FCD5E86987
:101B20004002F9D5DAF814000AAF40F48050CAF840
:101B30001400DAF8140043F6000600F48050009018
:101B40000098DAF800004FF0020940F00100CAF8EE
:101B50000000DAF800004FF0000800F001000090EB
:101B60000098DAF800004FF0050B40F00200CAF8C8
:101B70000000DAF80000394600F0020000900098FA
:101B800020200A904FF09040C4F20106CDF82C902E
:101B9000CDE90C88CDF83880CDF83CB0FEF7FCFEDE
:101BA0008020CDE90A094FF090403946CDE90C88F4
:101BB000CDE90E8BFEF7F0FE1020CDE90A0940F2C8
:101BC0000040C4F600003946CDE90C88CDE90E8B03
:101BD000FEF7E2FE40F60402C4F2020250680A2157
:101BE00061F307005060A06A4BF6EF71CFF6FF710A
:101BF0000840A062A06A134620F44050A062A06A88
:101C00000A4620F02000A062A06A0B2120F04000CC
:101C1000A062A06A4FF0070B40F08000A062A06AAB
:101C200020F44070A062A06A20F44060A06298682E
:101C300061F307009860E06B4FF090411040103066
:101C4000E063E06B69F30D30E063E06B20F02000AF
:101C5000E063E06B20F04000E063E06B40F0800068
:101C6000E063E06B20F44070E063E06B20F44060E0
:101C7000E063086820F4406008604FF482700190CF
:101C80004FF4E060CDE90209012004904FF40070A8
:101C900005902820CDE9060805F530406946CDF8C5
:101CA0000080CDF82080CDF824B0FFF73AF843F259
:101CB0000400C4F2010001686D4621F010010160CA
:101CC000016821F00801016028461421FEF7B1FBEC
:101CD000DAF80C004EF2001140F02000CAF80C00B7
:101CE000DAF80C00CEF2000100F020000A900A9809
:101CF0004EF60C50CEF2000000684EF20B40CEF2D1
:101D0000000080F82C804FF4000041F2004748604A
:101D100041F2BF20C4F20007029038462946ADF8D0
:101D20000080CDF80480FFF742F838684FF68F71D5
:101D300020F0800038607868CFF6FF510840786066
:101D4000B8680AAD20F08000B860DAF83C00294697
:101D500020F00300CAF83C00DAF8140040F4804098
:101D6000CAF81400DAF8140000F4804000900098DB
:101D7000DAF8000040F00100CAF80000DAF80000CC
:101D800000F0010000900098DAF8000040F0020036
:101D9000CAF80000DAF8000000F002000090009895
:101DA0004FF40070CDE90A094FF09040CDE90C885E
:101DB000CDE90E8BFEF7F0FD4FF48050CDE90A0916
:101DC0004FF090402946CDE90C88CDE90E8BFEF707
:101DD000E3FD8020CDE90A0940F20040C4F600008E
:101DE0002946CDE90C88CDE90E8BFEF7D5FD40F6EE
:101DF0000402C4F20202D068182161F30700D06027
:101E0000206D4BF6EF71CFF6FF7108402065206D15
:101E10004FF0904120F440502065206D20F02000CC
:101E20002065206D20F040002065206D40F080008E
:101E30002065206D20F440702065206D20F4406006
:101E40002065086820F4402008604CF2C060C0F2B1
:101E50002D00CDE901080C20CDE905086946304682
:101E6000CDF80080CDE90388CDF81C80FFF718F885
:101E700043F60800C4F2010050E8001F21F0604161
:101E800040E80012002AF7D150E8001F21F06061FD
:101E900040E80012002AF7D1B06840F48040B060FA
:101EA000B06820F40040B060306820F07870306096
:101EB000306820F4F8103060306820F00050306056
:101EC000706820F490407060B06820F02A00B06024
:101ED000306840F001003060F0698002FCD5F069A4
:101EE0004002F9D5FEF712FDFEF770FBFEE7F1EEBA
:101EF000100A4FF6FF71C0F2C03120EA010040F035
:101F00004070E1EE100A7047000000000000000081
:101F1000010203040607080900000000010203048F
:101F2000000C1814303C2824606C7874505C4844D1
:101F3000C0CCD8D4F0FCE8E4A0ACB8B4909C8884C1
:101F40008C809498BCB0A4A8ECE0F4F8DCD0C4C8B1
:101F50004C4054587C7064682C2034381C100408A1
:101F600014180C0024283C3074786C6044485C5091
:101F7000D4D8CCC0E4E8FCF0B4B8ACA084889C9081
:101F80009894808CA8A4B0BCF8F4E0ECC8C4D0DC71
:101F90005854404C6864707C3834202C0804101C61
:101FA0002824303C1814000C4844505C7874606C51
:101FB000E8E4F0FCD8D4C0CC8884909CB8B4A0AC41
:101FC000A4A8BCB094988C80C4C8DCD0F4F8ECE031
:101FD00064687C7054584C4004081C1034382C2021
:101FE0003C3024280C0014185C5044486C60747811
:101FF000FCF0E4E8CCC0D4D89C908488ACA0B4B801
:10200000B0BCA8A4808C9894D0DCC8C4E0ECF8F4F0
:10201000707C6864404C5854101C0804202C3834E0
:10202000000306050C0F0A090B080D0E0704010238
:1020300050200008000000201000000014020008DA
:10204000602000081000002000210000300200087D
:10205000010000000024F400010100000000000065
:04000005080001D915
:00000001FF
